{"contracts/Counter.sol":{"Counter":{"abi":[{"inputs":[],"name":"decreasement","outputs":[],"stateMutability":"nonpayable","type":"function"},{"inputs":[],"name":"increment","outputs":[],"stateMutability":"nonpayable","type":"function"},{"inputs":[],"name":"retrieve","outputs":[{"internalType":"uint256","name":"","type":"uint256"}],"stateMutability":"view","type":"function"}],"evm":{"bytecode":{"linkReferences":{},"object":"60806040526103e760005534801561001657600080fd5b506101d2806100266000396000f3fe608060405234801561001057600080fd5b50600436106100415760003560e01c80632428b06d146100465780632e64cec114610050578063d09de08a1461006e575b600080fd5b61004e610078565b005b61005861008f565b60405161006591906100c8565b60405180910390f35b610076610098565b005b60016000546100879190610112565b600081905550565b60008054905090565b60016000546100a79190610146565b600081905550565b6000819050919050565b6100c2816100af565b82525050565b60006020820190506100dd60008301846100b9565b92915050565b7f4e487b7100000000000000000000000000000000000000000000000000000000600052601160045260246000fd5b600061011d826100af565b9150610128836100af565b92508282101561013b5761013a6100e3565b5b828203905092915050565b6000610151826100af565b915061015c836100af565b9250827fffffffffffffffffffffffffffffffffffffffffffffffffffffffffffffffff03821115610191576101906100e3565b5b82820190509291505056fea264697066735822122053f81ee530842cd20a982219094f2fc40962f69770f75ef16708fa64fad4d24c64736f6c63430008090033","opcodes":"PUSH1 0x80 PUSH1 0x40 MSTORE PUSH2 0x3E7 PUSH1 0x0 SSTORE CALLVALUE DUP1 ISZERO PUSH2 0x16 JUMPI PUSH1 0x0 DUP1 REVERT JUMPDEST POP PUSH2 0x1D2 DUP1 PUSH2 0x26 PUSH1 0x0 CODECOPY PUSH1 0x0 RETURN INVALID PUSH1 0x80 PUSH1 0x40 MSTORE CALLVALUE DUP1 ISZERO PUSH2 0x10 JUMPI PUSH1 0x0 DUP1 REVERT JUMPDEST POP PUSH1 0x4 CALLDATASIZE LT PUSH2 0x41 JUMPI PUSH1 0x0 CALLDATALOAD PUSH1 0xE0 SHR DUP1 PUSH4 0x2428B06D EQ PUSH2 0x46 JUMPI DUP1 PUSH4 0x2E64CEC1 EQ PUSH2 0x50 JUMPI DUP1 PUSH4 0xD09DE08A EQ PUSH2 0x6E JUMPI JUMPDEST PUSH1 0x0 DUP1 REVERT JUMPDEST PUSH2 0x4E PUSH2 0x78 JUMP JUMPDEST STOP JUMPDEST PUSH2 0x58 PUSH2 0x8F JUMP JUMPDEST PUSH1 0x40 MLOAD PUSH2 0x65 SWAP2 SWAP1 PUSH2 0xC8 JUMP JUMPDEST PUSH1 0x40 MLOAD DUP1 SWAP2 SUB SWAP1 RETURN JUMPDEST PUSH2 0x76 PUSH2 0x98 JUMP JUMPDEST STOP JUMPDEST PUSH1 0x1 PUSH1 0x0 SLOAD PUSH2 0x87 SWAP2 SWAP1 PUSH2 0x112 JUMP JUMPDEST PUSH1 0x0 DUP2 SWAP1 SSTORE POP JUMP JUMPDEST PUSH1 0x0 DUP1 SLOAD SWAP1 POP SWAP1 JUMP JUMPDEST PUSH1 0x1 PUSH1 0x0 SLOAD PUSH2 0xA7 SWAP2 SWAP1 PUSH2 0x146 JUMP JUMPDEST PUSH1 0x0 DUP2 SWAP1 SSTORE POP JUMP JUMPDEST PUSH1 0x0 DUP2 SWAP1 POP SWAP2 SWAP1 POP JUMP JUMPDEST PUSH2 0xC2 DUP2 PUSH2 0xAF JUMP JUMPDEST DUP3 MSTORE POP POP JUMP JUMPDEST PUSH1 0x0 PUSH1 0x20 DUP3 ADD SWAP1 POP PUSH2 0xDD PUSH1 0x0 DUP4 ADD DUP5 PUSH2 0xB9 JUMP JUMPDEST SWAP3 SWAP2 POP POP JUMP JUMPDEST PUSH32 0x4E487B7100000000000000000000000000000000000000000000000000000000 PUSH1 0x0 MSTORE PUSH1 0x11 PUSH1 0x4 MSTORE PUSH1 0x24 PUSH1 0x0 REVERT JUMPDEST PUSH1 0x0 PUSH2 0x11D DUP3 PUSH2 0xAF JUMP JUMPDEST SWAP2 POP PUSH2 0x128 DUP4 PUSH2 0xAF JUMP JUMPDEST SWAP3 POP DUP3 DUP3 LT ISZERO PUSH2 0x13B JUMPI PUSH2 0x13A PUSH2 0xE3 JUMP JUMPDEST JUMPDEST DUP3 DUP3 SUB SWAP1 POP SWAP3 SWAP2 POP POP JUMP JUMPDEST PUSH1 0x0 PUSH2 0x151 DUP3 PUSH2 0xAF JUMP JUMPDEST SWAP2 POP PUSH2 0x15C DUP4 PUSH2 0xAF JUMP JUMPDEST SWAP3 POP DUP3 PUSH32 0xFFFFFFFFFFFFFFFFFFFFFFFFFFFFFFFFFFFFFFFFFFFFFFFFFFFFFFFFFFFFFFFF SUB DUP3 GT ISZERO PUSH2 0x191 JUMPI PUSH2 0x190 PUSH2 0xE3 JUMP JUMPDEST JUMPDEST DUP3 DUP3 ADD SWAP1 POP SWAP3 SWAP2 POP POP JUMP INVALID LOG2 PUSH5 0x6970667358 0x22 SLT KECCAK256 MSTORE8 0xF8 0x1E 0xE5 ADDRESS DUP5 0x2C 0xD2 EXP SWAP9 0x22 NOT MULMOD 0x4F 0x2F 0xC4 MULMOD PUSH3 0xF69770 0xF7 0x5E CALL PUSH8 0x8FA64FAD4D24C64 PUSH20 0x6F6C634300080900330000000000000000000000 "},"methodIdentifiers":{"decreasement()":"2428b06d","increment()":"d09de08a","retrieve()":"2e64cec1"}}}}}