{
  "_format": "hh-sol-artifact-1",
  "contractName": "Counter",
  "sourceName": "contracts/Counter.sol",
  "abi": [
    {
      "inputs": [],
      "name": "decreasement",
      "outputs": [],
      "stateMutability": "nonpayable",
      "type": "function"
    },
    {
      "inputs": [],
      "name": "increment",
      "outputs": [],
      "stateMutability": "nonpayable",
      "type": "function"
    },
    {
      "inputs": [],
      "name": "retrieve",
      "outputs": [
        {
          "internalType": "uint256",
          "name": "",
          "type": "uint256"
        }
      ],
      "stateMutability": "view",
      "type": "function"
    }
  ],
  "bytecode": "0x60806040526103e760005534801561001657600080fd5b506101d2806100266000396000f3fe608060405234801561001057600080fd5b50600436106100415760003560e01c80632428b06d146100465780632e64cec114610050578063d09de08a1461006e575b600080fd5b61004e610078565b005b61005861008f565b60405161006591906100c8565b60405180910390f35b610076610098565b005b60016000546100879190610112565b600081905550565b60008054905090565b60016000546100a79190610146565b600081905550565b6000819050919050565b6100c2816100af565b82525050565b60006020820190506100dd60008301846100b9565b92915050565b7f4e487b7100000000000000000000000000000000000000000000000000000000600052601160045260246000fd5b600061011d826100af565b9150610128836100af565b92508282101561013b5761013a6100e3565b5b828203905092915050565b6000610151826100af565b915061015c836100af565b9250827fffffffffffffffffffffffffffffffffffffffffffffffffffffffffffffffff03821115610191576101906100e3565b5b82820190509291505056fea264697066735822122053f81ee530842cd20a982219094f2fc40962f69770f75ef16708fa64fad4d24c64736f6c63430008090033",
  "linkReferences": {},
  "deployedLinkReferences": {}
}