{
  "_format": "hh-sol-artifact-1",
  "contractName": "SupplyChain",
  "sourceName": "contracts/SupplyChain.sol",
  "abi": [
    {
      "inputs": [
        {
          "internalType": "string",
          "name": "_text",
          "type": "string"
        }
      ],
      "name": "addRecord",
      "outputs": [
        {
          "internalType": "bool",
          "name": "",
          "type": "bool"
        }
      ],
      "stateMutability": "nonpayable",
      "type": "function"
    },
    {
      "inputs": [
        {
          "internalType": "string",
          "name": "_a",
          "type": "string"
        },
        {
          "internalType": "string",
          "name": "_b",
          "type": "string"
        }
      ],
      "name": "concat",
      "outputs": [
        {
          "internalType": "string",
          "name": "",
          "type": "string"
        }
      ],
      "stateMutability": "nonpayable",
      "type": "function"
    },
    {
      "inputs": [],
      "name": "getRecords",
      "outputs": [
        {
          "internalType": "string",
          "name": "",
          "type": "string"
        }
      ],
      "stateMutability": "nonpayable",
      "type": "function"
    }
  ],
  "bytecode": "0x6080604052600060015534801561001557600080fd5b50610edd806100256000396000f3fe608060405234801561001057600080fd5b50600436106100415760003560e01c806389c19ddb146100465780638eff3c2914610076578063d81aa8c414610094575b600080fd5b610060600480360381019061005b919061080b565b6100c4565b60405161006d919061090b565b60405180910390f35b61007e61025a565b60405161008b919061090b565b60405180910390f35b6100ae60048036038101906100a9919061092d565b6103d5565b6040516100bb9190610991565b60405180910390f35b6060600083905060008390506000815183516100e091906109e5565b67ffffffffffffffff8111156100f9576100f86106e0565b5b6040519080825280601f01601f19166020018201604052801561012b5781602001600182028036833780820191505090505b50905060008190506000805b85518110156101bf5785818151811061015357610152610a3b565b5b602001015160f81c60f81b83838061016a90610a6a565b94508151811061017d5761017c610a3b565b5b60200101907effffffffffffffffffffffffffffffffffffffffffffffffffffffffffffff1916908160001a90535080806101b790610a6a565b915050610137565b5060005b845181101561024b578481815181106101df576101de610a3b565b5b602001015160f81c60f81b8383806101f690610a6a565b94508151811061020957610208610a3b565b5b60200101907effffffffffffffffffffffffffffffffffffffffffffffffffffffffffffff1916908160001a905350808061024390610a6a565b9150506101c3565b50819550505050505092915050565b606060006040518060400160405280600781526020017f7b646174613a5b00000000000000000000000000000000000000000000000000815250905060005b60015481101561038c57610377826103726000808581526020019081526020016000206040518060600160405290816000820180546102d790610ae2565b80601f016020809104026020016040519081016040528092919081815260200182805461030390610ae2565b80156103505780601f1061032557610100808354040283529160200191610350565b820191906000526020600020905b81548152906001019060200180831161033357829003601f168201915b505050505081526020016001820154815260200160028201548152505061045e565b6100c4565b9150808061038490610a6a565b915050610299565b506103cc816040518060400160405280600281526020017f5d7d0000000000000000000000000000000000000000000000000000000000008152506100c4565b90508091505090565b60008060405180606001604052808481526020014281526020016001548152509050806000806001548152602001908152602001600020600082015181600001908051906020019061042892919061060e565b5060208201518160010155604082015181600201559050506001805461044e91906109e5565b6001819055506001915050919050565b60606000826000015161047484602001516104ad565b61048185604001516104ad565b60405160200161049393929190610d64565b604051602081830303815290604052905080915050919050565b606060008214156104f5576040518060400160405280600181526020017f30000000000000000000000000000000000000000000000000000000000000008152509050610609565b600082905060005b6000821461052757808061051090610a6a565b915050600a826105209190610e11565b91506104fd565b60008167ffffffffffffffff811115610543576105426106e0565b5b6040519080825280601f01601f1916602001820160405280156105755781602001600182028036833780820191505090505b5090505b600085146106025760018261058e9190610e42565b9150600a8561059d9190610e76565b60306105a991906109e5565b60f81b8183815181106105bf576105be610a3b565b5b60200101907effffffffffffffffffffffffffffffffffffffffffffffffffffffffffffff1916908160001a905350600a856105fb9190610e11565b9450610579565b8093505050505b919050565b82805461061a90610ae2565b90600052602060002090601f01602090048101928261063c5760008555610683565b82601f1061065557805160ff1916838001178555610683565b82800160010185558215610683579182015b82811115610682578251825591602001919060010190610667565b5b5090506106909190610694565b5090565b5b808211156106ad576000816000905550600101610695565b5090565b6000604051905090565b600080fd5b600080fd5b600080fd5b600080fd5b6000601f19601f8301169050919050565b7f4e487b7100000000000000000000000000000000000000000000000000000000600052604160045260246000fd5b610718826106cf565b810181811067ffffffffffffffff82111715610737576107366106e0565b5b80604052505050565b600061074a6106b1565b9050610756828261070f565b919050565b600067ffffffffffffffff821115610776576107756106e0565b5b61077f826106cf565b9050602081019050919050565b82818337600083830152505050565b60006107ae6107a98461075b565b610740565b9050828152602081018484840111156107ca576107c96106ca565b5b6107d584828561078c565b509392505050565b600082601f8301126107f2576107f16106c5565b5b813561080284826020860161079b565b91505092915050565b60008060408385031215610822576108216106bb565b5b600083013567ffffffffffffffff8111156108405761083f6106c0565b5b61084c858286016107dd565b925050602083013567ffffffffffffffff81111561086d5761086c6106c0565b5b610879858286016107dd565b9150509250929050565b600081519050919050565b600082825260208201905092915050565b60005b838110156108bd5780820151818401526020810190506108a2565b838111156108cc576000848401525b50505050565b60006108dd82610883565b6108e7818561088e565b93506108f781856020860161089f565b610900816106cf565b840191505092915050565b6000602082019050818103600083015261092581846108d2565b905092915050565b600060208284031215610943576109426106bb565b5b600082013567ffffffffffffffff811115610961576109606106c0565b5b61096d848285016107dd565b91505092915050565b60008115159050919050565b61098b81610976565b82525050565b60006020820190506109a66000830184610982565b92915050565b6000819050919050565b7f4e487b7100000000000000000000000000000000000000000000000000000000600052601160045260246000fd5b60006109f0826109ac565b91506109fb836109ac565b9250827fffffffffffffffffffffffffffffffffffffffffffffffffffffffffffffffff03821115610a3057610a2f6109b6565b5b828201905092915050565b7f4e487b7100000000000000000000000000000000000000000000000000000000600052603260045260246000fd5b6000610a75826109ac565b91507fffffffffffffffffffffffffffffffffffffffffffffffffffffffffffffffff821415610aa857610aa76109b6565b5b600182019050919050565b7f4e487b7100000000000000000000000000000000000000000000000000000000600052602260045260246000fd5b60006002820490506001821680610afa57607f821691505b60208210811415610b0e57610b0d610ab3565b5b50919050565b600081905092915050565b7f7b00000000000000000000000000000000000000000000000000000000000000600082015250565b6000610b55600183610b14565b9150610b6082610b1f565b600182019050919050565b7f226d657373616765223a20220000000000000000000000000000000000000000600082015250565b6000610ba1600c83610b14565b9150610bac82610b6b565b600c82019050919050565b6000610bc282610883565b610bcc8185610b14565b9350610bdc81856020860161089f565b80840191505092915050565b7f222c000000000000000000000000000000000000000000000000000000000000600082015250565b6000610c1e600283610b14565b9150610c2982610be8565b600282019050919050565b7f2274696d657374616d70223a2000000000000000000000000000000000000000600082015250565b6000610c6a600d83610b14565b9150610c7582610c34565b600d82019050919050565b7f2c00000000000000000000000000000000000000000000000000000000000000600082015250565b6000610cb6600183610b14565b9150610cc182610c80565b600182019050919050565b7f227265636f72644964223a200000000000000000000000000000000000000000600082015250565b6000610d02600c83610b14565b9150610d0d82610ccc565b600c82019050919050565b7f7d00000000000000000000000000000000000000000000000000000000000000600082015250565b6000610d4e600183610b14565b9150610d5982610d18565b600182019050919050565b6000610d6f82610b48565b9150610d7a82610b94565b9150610d868286610bb7565b9150610d9182610c11565b9150610d9c82610c5d565b9150610da88285610bb7565b9150610db382610ca9565b9150610dbe82610cf5565b9150610dca8284610bb7565b9150610dd582610d41565b9150819050949350505050565b7f4e487b7100000000000000000000000000000000000000000000000000000000600052601260045260246000fd5b6000610e1c826109ac565b9150610e27836109ac565b925082610e3757610e36610de2565b5b828204905092915050565b6000610e4d826109ac565b9150610e58836109ac565b925082821015610e6b57610e6a6109b6565b5b828203905092915050565b6000610e81826109ac565b9150610e8c836109ac565b925082610e9c57610e9b610de2565b5b82820690509291505056fea26469706673582212205493dbcf3cce05c73e961b1de4a4a4714adb5a67c83650f39dcf2ba611cb9ee264736f6c63430008090033",
  "linkReferences": {},
  "deployedLinkReferences": {}
}