{
  "_format": "hh-sol-artifact-1",
  "contractName": "SupplyChain",
  "sourceName": "contracts/SupplyChain.sol",
  "abi": [
    {
      "inputs": [
        {
          "internalType": "string",
          "name": "_text",
          "type": "string"
        }
      ],
      "name": "addRecord",
      "outputs": [
        {
          "internalType": "bool",
          "name": "",
          "type": "bool"
        }
      ],
      "stateMutability": "nonpayable",
      "type": "function"
    },
    {
      "inputs": [
        {
          "internalType": "uint256",
          "name": "_id",
          "type": "uint256"
        }
      ],
      "name": "getRecord",
      "outputs": [
        {
          "internalType": "uint256",
          "name": "",
          "type": "uint256"
        },
        {
          "internalType": "string",
          "name": "",
          "type": "string"
        },
        {
          "internalType": "uint256",
          "name": "",
          "type": "uint256"
        }
      ],
      "stateMutability": "view",
      "type": "function"
    },
    {
      "inputs": [],
      "name": "getRecordCount",
      "outputs": [
        {
          "internalType": "uint256",
          "name": "",
          "type": "uint256"
        }
      ],
      "stateMutability": "view",
      "type": "function"
    }
  ],
  "bytecode": "0x6080604052600060015534801561001557600080fd5b5061072d806100256000396000f3fe608060405234801561001057600080fd5b50600436106100415760003560e01c806303e9e60914610046578063ca267f2814610078578063d81aa8c414610096575b600080fd5b610060600480360381019061005b919061032f565b6100c6565b60405161006f93929190610404565b60405180910390f35b6100806101af565b60405161008d9190610442565b60405180910390f35b6100b060048036038101906100ab9190610592565b6101b9565b6040516100bd91906105f6565b60405180910390f35b600060606000806000808681526020019081526020016000206040518060600160405290816000820180546100fa90610640565b80601f016020809104026020016040519081016040528092919081815260200182805461012690610640565b80156101735780601f1061014857610100808354040283529160200191610173565b820191906000526020600020905b81548152906001019060200180831161015657829003601f168201915b50505050508152602001600182015481526020016002820154815250509050806040015181600001518260200151935093509350509193909250565b6000600154905090565b60008060405180606001604052808481526020014281526020016001548152509050806000806001548152602001908152602001600020600082015181600001908051906020019061020c929190610242565b5060208201518160010155604082015181600201559050506001805461023291906106a1565b6001819055506001915050919050565b82805461024e90610640565b90600052602060002090601f01602090048101928261027057600085556102b7565b82601f1061028957805160ff19168380011785556102b7565b828001600101855582156102b7579182015b828111156102b657825182559160200191906001019061029b565b5b5090506102c491906102c8565b5090565b5b808211156102e15760008160009055506001016102c9565b5090565b6000604051905090565b600080fd5b600080fd5b6000819050919050565b61030c816102f9565b811461031757600080fd5b50565b60008135905061032981610303565b92915050565b600060208284031215610345576103446102ef565b5b60006103538482850161031a565b91505092915050565b610365816102f9565b82525050565b600081519050919050565b600082825260208201905092915050565b60005b838110156103a557808201518184015260208101905061038a565b838111156103b4576000848401525b50505050565b6000601f19601f8301169050919050565b60006103d68261036b565b6103e08185610376565b93506103f0818560208601610387565b6103f9816103ba565b840191505092915050565b6000606082019050610419600083018661035c565b818103602083015261042b81856103cb565b905061043a604083018461035c565b949350505050565b6000602082019050610457600083018461035c565b92915050565b600080fd5b600080fd5b7f4e487b7100000000000000000000000000000000000000000000000000000000600052604160045260246000fd5b61049f826103ba565b810181811067ffffffffffffffff821117156104be576104bd610467565b5b80604052505050565b60006104d16102e5565b90506104dd8282610496565b919050565b600067ffffffffffffffff8211156104fd576104fc610467565b5b610506826103ba565b9050602081019050919050565b82818337600083830152505050565b6000610535610530846104e2565b6104c7565b90508281526020810184848401111561055157610550610462565b5b61055c848285610513565b509392505050565b600082601f8301126105795761057861045d565b5b8135610589848260208601610522565b91505092915050565b6000602082840312156105a8576105a76102ef565b5b600082013567ffffffffffffffff8111156105c6576105c56102f4565b5b6105d284828501610564565b91505092915050565b60008115159050919050565b6105f0816105db565b82525050565b600060208201905061060b60008301846105e7565b92915050565b7f4e487b7100000000000000000000000000000000000000000000000000000000600052602260045260246000fd5b6000600282049050600182168061065857607f821691505b6020821081141561066c5761066b610611565b5b50919050565b7f4e487b7100000000000000000000000000000000000000000000000000000000600052601160045260246000fd5b60006106ac826102f9565b91506106b7836102f9565b9250827fffffffffffffffffffffffffffffffffffffffffffffffffffffffffffffffff038211156106ec576106eb610672565b5b82820190509291505056fea2646970667358221220e60d1862160f1c74a7af29cfaf69edc8112728d4dd172926719a9c06aa15e57064736f6c63430008090033",
  "linkReferences": {},
  "deployedLinkReferences": {}
}